:020000040000fa
:080000000001040000000000f3
:020000040000fa
:0400080004020000ee
:020000040000fa
:04000c0004020000ea
:020000040000fa
:0400100004020000e6
:020000040000fa
:0400140004020000e2
:020000040000fa
:0400180004020000de
:020000040000fa
:04001c0004020000da
:020000040000fa
:0400200004020000d6
:020000040000fa
:0400240004020000d2
:020000040000fa
:0400280004020000ce
:020000040000fa
:04002c0004020000ca
:020000040000fa
:0400300004020000c6
:020000040000fa
:0400340004020000c2
:020000040000fa
:0400380004020000be
:020000040000fa
:04003c0004020000ba
:020000040000fa
:0400400004020000b6
:020000040000fa
:0400440004020000b2
:020000040000fa
:0400480004020000ae
:020000040000fa
:04004c0004020000aa
:020000040000fa
:0400500004020000a6
:020000040000fa
:0400540004020000a2
:020000040000fa
:04005800040200009e
:020000040000fa
:04005c00040200009a
:020000040000fa
:040060000402000096
:020000040000fa
:040064000402000092
:020000040000fa
:04006800040200008e
:020000040000fa
:04006c00040200008a
:020000040000fa
:040070000402000086
:020000040000fa
:040074000402000082
:020000040000fa
:04007800040200007e
:020000040000fa
:04007c00040200007a
:020000040000fa
:040080000402000076
:020000040000fa
:040084000402000072
:020000040000fa
:04008800040200006e
:020000040000fa
:04008c00040200006a
:020000040000fa
:040090000402000066
:020000040000fa
:040094000402000062
:020000040000fa
:04009800040200005e
:020000040000fa
:04009c00040200005a
:020000040000fa
:0400a0000402000056
:020000040000fa
:0400a4000402000052
:020000040000fa
:0400a800040200004e
:020000040000fa
:0400ac00040200004a
:020000040000fa
:0400b0000402000046
:020000040000fa
:0400b4000402000042
:020000040000fa
:0400b800040200003e
:020000040000fa
:0400bc00040200003a
:020000040000fa
:0400c0000402000036
:020000040000fa
:0400c4000402000032
:020000040000fa
:0400c800040200002e
:020000040000fa
:0400cc00040200002a
:020000040000fa
:0400d0000402000026
:020000040000fa
:0400d4000402000022
:020000040000fa
:0400d800040200001e
:020000040000fa
:0400dc00040200001a
:020000040000fa
:0400e0000402000016
:020000040000fa
:0400e4000402000012
:020000040000fa
:0400e800040200000e
:020000040000fa
:0400ec00040200000a
:020000040000fa
:0400f0000402000006
:020000040000fa
:0400f4000402000002
:020000040000fa
:0400f80004020000fe
:020000040000fa
:0400fc0004020000fa
:020000040000fa
:0401000004020000f5
:020000040000fa
:0401040004020000f1
:020000040000fa
:0401080004020000ed
:020000040000fa
:04010c0004020000e9
:020000040000fa
:0401100004020000e5
:020000040000fa
:0401140004020000e1
:020000040000fa
:0401180004020000dd
:020000040000fa
:04011c0004020000d9
:020000040000fa
:0401200004020000d5
:020000040000fa
:0401240004020000d1
:020000040000fa
:0401280004020000cd
:020000040000fa
:04012c0004020000c9
:020000040000fa
:0401300004020000c5
:020000040000fa
:0401340004020000c1
:020000040000fa
:0401380004020000bd
:020000040000fa
:04013c0004020000b9
:020000040000fa
:0401400004020000b5
:020000040000fa
:0401440004020000b1
:020000040000fa
:0401480004020000ad
:020000040000fa
:04014c0004020000a9
:020000040000fa
:0401500004020000a5
:020000040000fa
:0401540004020000a1
:020000040000fa
:04015800040200009d
:020000040000fa
:04015c000402000099
:020000040000fa
:040160000402000095
:020000040000fa
:040164000402000091
:020000040000fa
:04016800040200008d
:020000040000fa
:04016c000402000089
:020000040000fa
:040170000402000085
:020000040000fa
:040174000402000081
:020000040000fa
:04017800040200007d
:020000040000fa
:04017c000402000079
:020000040000fa
:040180000402000075
:020000040000fa
:040184000402000071
:020000040000fa
:04018800040200006d
:020000040000fa
:04018c000402000069
:020000040000fa
:040190000402000065
:020000040000fa
:040194000402000061
:020000040000fa
:04019800040200005d
:020000040000fa
:04019c000402000059
:020000040000fa
:0401a0000402000055
:020000040000fa
:0401a4000402000051
:020000040000fa
:0401a800040200004d
:020000040000fa
:0401ac000402000049
:020000040000fa
:0401b0000402000045
:020000040000fa
:0401b4000402000041
:020000040000fa
:0401b800040200003d
:020000040000fa
:0401bc000402000039
:020000040000fa
:0401c0000402000035
:020000040000fa
:0401c4000402000031
:020000040000fa
:0401c800040200002d
:020000040000fa
:0401cc000402000029
:020000040000fa
:0401d0000402000025
:020000040000fa
:0401d4000402000021
:020000040000fa
:0401d800040200001d
:020000040000fa
:0401dc000402000019
:020000040000fa
:0401e0000402000015
:020000040000fa
:0401e4000402000011
:020000040000fa
:0401e800040200000d
:020000040000fa
:0401ec000402000009
:020000040000fa
:0401f0000402000005
:020000040000fa
:0401f4000402000001
:020000040000fa
:0401f80004020000fd
:020000040000fa
:0401fc0004020000f9
:020000040000fa
:100200002f8120000eff27000e0188000000000053
:10021000000020000000e000020032000001200089
:100220002002880014000700790007000000e000a9
:1002300003003a00c05f20000100200002003700e8
:100240000000200001002000810f7000010032003a
:1002500014000700000020000000e000020032004f
:1002600000000200000000008c05020000000000f9
:100270000040da000000fe004440a900c00b20004e
:100280000000e00003003200002020009001880000
:100290004440a800000006008a1f78008b1f7800e9
:1002a00000000600a1028800800478000000eb0036
:1002b0001f003700e284440054a0b4009905ba003e
:1002c000e284440054a0b4009906ba00e2844400d9
:1002d00054a0b4000006eb00476fde00fd07b2003b
:1002e000ae018800636ce10003003a00eaff0700fa
:1002f0000000eb000e003700606ce10008003a00df
:10030000004deb000a05e800020039003420ec0043
:100310000af0a0008b05e900f9ff3e000400370059
:100320006168e100010032000086eb000b0007006d
:1003300019c7ba001905ba000e04e00003003a001c
:100340000a00e000dbff3a0000000600fe07b200f2
:10035000ae0288008a047800f5ff37000cd0a300b5
:10036000e20f4d001c00390089027800354dba00bb
:100370000a05e800020039003420ec000af0a00071
:100380008b05e9000f003200254dba000a05e80090
:10039000020039003420ec000af0a0008b05e900cf
:1003a000080032000c00e0000600320015cdba0053
:1003b0000a05e800020039003420ec000af0a00031
:1003c0008b05e9008984e80054a0b4000b00e0002c
:1003d000e2ff3a00000006009902ba00055d7800cd
:1003e0008b05e900f7ff3200c82ade00055d7800c2
:1003f0008b05e900f3ff32000c00e000f1ff320052
:1004000019ddba00eeff37000040da000000fe0000
:0404100000000500e3
:020000040000fa
:100414002077000069740000682000004e6f00001f
:1004240020700000617200006974000079200000ef
:100434006269000074000000207700006974000005
:10044400682000004f640000642000007061000018
:100454007269000074790000206200006974000071
:100464000020000077690000746800002045000047
:10047400766500006e200000706100007269000063
:1004840074790000206200006974000000200000fc
:100494007769000074680000204d0000617200005c
:1004a4006b200000626900007400000020770000e7
:1004b400697400006820000053700000616300004c
:1004c40065200000626900007400000020770000cd
:1004d40069740000682000004e6f00002070000066
:1004e40061720000697400007920000062690000f4
:1004f4007400000020770000697400006820000088
:100504004f64000064200000706100007269000004
:10051400747900002062000069740000002000006b
:1005240077690000746800002045000076650000cb
:100534006e20000070610000726900007479000090
:100544002062000069740000002000007769000048
:1005540074680000204d0000617200006b200000f0
:1005640062690000740000002077000069740000d4
:1005740068200000537000006163000065200000e3
:08058400626900007400000030
:020000040000fa
:10058c000200fa00000f78007fe6a9009e86a90001
:10059c009ea6a900b206a900b226a900b246a900df
:1005ac00b266a900ba86a900b2a6a900b2c6a90073
:1005bc00b2e6a90077e6a9009e86a9009ea6a9002e
:1005cc00b206a900b226a900b246a900b266a900db
:1005dc00b286a900b2a6a900b2c6a900b2e6a900cb
:1005ec00b606a900b626a900b646a900b666a900ab
:1005fc00a2a6a900a286a9007be6a90000a62e004f
:10060c00010020006b01070000c3b3005d00070070
:10061c0000e22400010020006601070000c3b300c3
:10062c0058000700801b200001002000610107001a
:10063c0000c3b30053000700000a20000100200093
:10064c005c01070020c0b3004e00070080c2b3005d
:10065c004c000700000a2000010020005501070093
:10066c0080c0b30047000700000a200001002000f2
:10067c005001070010c0b3004200070000f4210035
:10068c00010020004b01070060c0b3003d000700d3
:10069c00000a20000100200046010700c0c0b30082
:1006ac0038000700000a200001002000410107006b
:1006bc000080fa00000006000200fa00004f7800eb
:1006cc009e40780061c060000080fb00610060000b
:1006dc004400dd00b13580000140a1000100700034
:1006ec00b03588001e80fb000000d100004078006f
:1006fc00614060000080fb00610060004500dd008f
:10070c00b13580000150a10001007000b0358800a7
:10071c001e80fb004200de0000407800614060005b
:10072c000080fb00610060004600dd00b1358000f8
:10073c000160a10001007000b03588001e80fb0034
:10074c004300de0000407800614060000080fb0048
:10075c00610060004700dd00b13580000170a10030
:10076c0001007000b03588007be6a8007be6a9008c
:10077c0000192000010020000e0107000080fa0083
:10078c00000006000200fa00004f7800a2a6a900a3
:10079c0000192000010020000601070000192000ac
:1007ac000100200003010700a286a9000019200007
:1007bc0001002000ff0007007be6a80000192000c4
:1007cc0001002000fb0007001e80fb004400de003f
:1007dc0000407800b8ff07001e407800b6ff070005
:1007ec000080fa00000006000200fa00004f7800ba
:1007fc00a2a6a8000019200001002000ed000700af
:10080c000019200001002000ea000700a286a900c0
:10081c000019200001002000e60007001e80fb00ec
:10082c004400de0000407800a3ff07001e40780063
:10083c00a1ff07000080fa00000006000400fa0087
:10084c000e81e800004978006300470001487800f9
:10085c000e80e80010407800e24f50000300340096
:10086c0021c0b3000e80e800014878000e80e8003b
:10087c00104078000000fb00e20f50000f00320027
:10088c00e20f500003003c00e10f50000600320064
:10089c0019003700e30f50000d003200e40f500038
:1008ac00100032001400370000c8b300004f78006d
:1008bc0010c0b30000e8b7000f00370000ccb30045
:1008cc00004f780020c0b30000e8b7000a003700e2
:1008dc0040c9b300004f780030c0b30000e8b70047
:1008ec000500370040cdb300004f780040c0b30086
:1008fc0000e8b7000000000063004700904078005b
:10090c001e40780000c040000040e900004f780015
:10091c001e4078009bff07000080fa0000000600d4
:10092c000200fa00004f78001e407800aeff07006e
:10093c000080fa00000006000200fa00004f780068
:10094c001e00fb00ea0f500012003200ea0f5000ac
:10095c0003003c00e80f5000150032001b0037006c
:10096c00ec0f500003003200ed0f5000130032006a
:10097c001600370010c0b30082ff070010c0b30090
:10098c0000e8b70000f421000100200089000700f6
:10099c001100370000c8bf000040e80000e8b700b5
:1009ac0000c8bf0011c0b300a4ff07000a00370045
:1009bc0000c1b30073ff07000700370000c8bf0079
:1009cc0011c0b3009dff0700030037001e407800e4
:1009dc0085ff0700000000000080fa000000060000
:1009ec000200fa00000f7800040037001e007800a7
:1009fc00104078007cff07001e0fe8001e007800f6
:100a0c00104078000004e000f8ff3a000080fa0083
:100a1c00000006000200fa00b206a800b226a800e8
:100a2c00b246a800b266a800b286a800b2a6a8007a
:100a3c00b2c6a800b2e6a800a286a800400020001a
:100a4c00010020005b0007007be6a80040002000ae
:100a5c000100200057000700b0358000004f7800df
:100a6c007be6a90040002000010020005100070097
:100a7c007be6a80040002000010020004d0007008c
:100a8c00b13580000e00e800014878007be6a90033
:100a9c00b206a900b226a900b246a900b266a90006
:100aac00b286a900b2a6a900b2c6a900b2e6a900f6
:100abc001e00fb004400dd00804078000e00e800c2
:100acc001040780000c070000080fa0000000600a2
:100adc000200fa0000c4b3002aff07000000eb007c
:100aec00000f78000300370020c0b30025ff07007b
:100afc001e0fe800f00320009e007800808f50004d
:100b0c00f9ff34000080fa00000006000000fa0033
:100b1c00dbc6a900dfc6a8002001200098fe070054
:100b2c0010c0b30017ff070000c42900010020000b
:100b3c002000070020802000a9ff070000c4290026
:100b4c00010020001b00070011c0b30020c0b3003f
:100b5c003aff070000c4290001002000150007001f
:100b6c00908020009eff07000088230011002000c9
:100b7c0010000700f03680004e00de00614060007f
:100b8c000004a200614060000080fb006100600076
:100b9c004e00dd00f136800001e0a1000100700084
:100bac00f036880000202100a1072000010007007a
:040bbc00dbff370024
:020000040000fa
:100bc000f03fb1000180b10006003500ee030900de
:100bd00000000000403fb1000180b100fbff3d007c
:100be0001000b000203fb000020035000080090076
:080bf0000000000000000600f7
:020000040000fa
:100bf80002080000100000008200000020484500a4
:100c08004c4c4f0000202000776f72006c6420006d
:100c18000000000000080000020000008000000042
:040c280000000000c8
:020000040000fa
:020000040002f8
:04be0000ffffff0041
:020000040000fa
:020000040002f8
:04be2000ff1f000000
:020000040000fa
:020000040002f8
:04be300062ffff00ae
:020000040000fa
:020000040002f8
:04be38009affff006e
:020000040000fa
:020000040002f8
:04be40009fffff0061
:020000040000fa
:020000040002f8
:04be4800f4ffff0004
:020000040000fa
:020000040002f8
:04be5000deffff0012
:020000040000fa
:020000040002f8
:04be5800f7ffff00f1
:00000001FF
