:020000040000fa
:080000000001040000000000f3
:020000040000fa
:0400080004020000ee
:020000040000fa
:04000c0004020000ea
:020000040000fa
:0400100004020000e6
:020000040000fa
:0400140004020000e2
:020000040000fa
:0400180004020000de
:020000040000fa
:04001c0004020000da
:020000040000fa
:0400200004020000d6
:020000040000fa
:0400240004020000d2
:020000040000fa
:0400280004020000ce
:020000040000fa
:04002c0004020000ca
:020000040000fa
:0400300004020000c6
:020000040000fa
:0400340004020000c2
:020000040000fa
:0400380004020000be
:020000040000fa
:04003c0004020000ba
:020000040000fa
:0400400004020000b6
:020000040000fa
:0400440004020000b2
:020000040000fa
:0400480004020000ae
:020000040000fa
:04004c0004020000aa
:020000040000fa
:0400500004020000a6
:020000040000fa
:0400540004020000a2
:020000040000fa
:04005800040200009e
:020000040000fa
:04005c00040200009a
:020000040000fa
:040060000402000096
:020000040000fa
:040064000402000092
:020000040000fa
:04006800040200008e
:020000040000fa
:04006c00040200008a
:020000040000fa
:040070000402000086
:020000040000fa
:040074000402000082
:020000040000fa
:04007800040200007e
:020000040000fa
:04007c00040200007a
:020000040000fa
:040080000402000076
:020000040000fa
:040084000402000072
:020000040000fa
:04008800040200006e
:020000040000fa
:04008c00040200006a
:020000040000fa
:040090000402000066
:020000040000fa
:040094000402000062
:020000040000fa
:04009800040200005e
:020000040000fa
:04009c00040200005a
:020000040000fa
:0400a0000402000056
:020000040000fa
:0400a4000402000052
:020000040000fa
:0400a800040200004e
:020000040000fa
:0400ac00040200004a
:020000040000fa
:0400b0000402000046
:020000040000fa
:0400b4000402000042
:020000040000fa
:0400b800040200003e
:020000040000fa
:0400bc00040200003a
:020000040000fa
:0400c0000402000036
:020000040000fa
:0400c4000402000032
:020000040000fa
:0400c800040200002e
:020000040000fa
:0400cc00040200002a
:020000040000fa
:0400d0000402000026
:020000040000fa
:0400d4000402000022
:020000040000fa
:0400d800040200001e
:020000040000fa
:0400dc00040200001a
:020000040000fa
:0400e0000402000016
:020000040000fa
:0400e4000402000012
:020000040000fa
:0400e800040200000e
:020000040000fa
:0400ec00040200000a
:020000040000fa
:0400f0000402000006
:020000040000fa
:0400f4000402000002
:020000040000fa
:0400f80004020000fe
:020000040000fa
:0400fc0004020000fa
:020000040000fa
:0401000004020000f5
:020000040000fa
:0401040004020000f1
:020000040000fa
:0401080004020000ed
:020000040000fa
:04010c0004020000e9
:020000040000fa
:0401100004020000e5
:020000040000fa
:0401140004020000e1
:020000040000fa
:0401180004020000dd
:020000040000fa
:04011c0004020000d9
:020000040000fa
:0401200004020000d5
:020000040000fa
:0401240004020000d1
:020000040000fa
:0401280004020000cd
:020000040000fa
:04012c0004020000c9
:020000040000fa
:0401300004020000c5
:020000040000fa
:0401340004020000c1
:020000040000fa
:0401380004020000bd
:020000040000fa
:04013c0004020000b9
:020000040000fa
:0401400004020000b5
:020000040000fa
:0401440004020000b1
:020000040000fa
:0401480004020000ad
:020000040000fa
:04014c0004020000a9
:020000040000fa
:0401500004020000a5
:020000040000fa
:0401540004020000a1
:020000040000fa
:04015800040200009d
:020000040000fa
:04015c000402000099
:020000040000fa
:040160000402000095
:020000040000fa
:040164000402000091
:020000040000fa
:04016800040200008d
:020000040000fa
:04016c000402000089
:020000040000fa
:040170000402000085
:020000040000fa
:040174000402000081
:020000040000fa
:04017800040200007d
:020000040000fa
:04017c000402000079
:020000040000fa
:040180000402000075
:020000040000fa
:040184000402000071
:020000040000fa
:04018800040200006d
:020000040000fa
:04018c000402000069
:020000040000fa
:040190000402000065
:020000040000fa
:040194000402000061
:020000040000fa
:04019800040200005d
:020000040000fa
:04019c000402000059
:020000040000fa
:0401a0000402000055
:020000040000fa
:0401a4000402000051
:020000040000fa
:0401a800040200004d
:020000040000fa
:0401ac000402000049
:020000040000fa
:0401b0000402000045
:020000040000fa
:0401b4000402000041
:020000040000fa
:0401b800040200003d
:020000040000fa
:0401bc000402000039
:020000040000fa
:0401c0000402000035
:020000040000fa
:0401c4000402000031
:020000040000fa
:0401c800040200002d
:020000040000fa
:0401cc000402000029
:020000040000fa
:0401d0000402000025
:020000040000fa
:0401d4000402000021
:020000040000fa
:0401d800040200001d
:020000040000fa
:0401dc000402000019
:020000040000fa
:0401e0000402000015
:020000040000fa
:0401e4000402000011
:020000040000fa
:0401e800040200000d
:020000040000fa
:0401ec000402000009
:020000040000fa
:0401f0000402000005
:020000040000fa
:0401f4000402000001
:020000040000fa
:0401f80004020000fd
:020000040000fa
:0401fc0004020000f9
:020000040000fa
:100200004f8020000eff27000e0188000000000034
:10021000000020000000e000020032000001200089
:100220002002880014000700790007000000e000a9
:1002300003003a00e05120000100200002003700d6
:100240000000200001002000810f7000010032003a
:1002500014000700000020000000e000020032004f
:100260000000020000000000a204020000000000e4
:100270000040da000000fe004440a90020002000f9
:100280000000e00003003200100020009001880010
:100290004440a800000006008a1f78008b1f7800e9
:1002a00000000600a1028800800478000000eb0036
:1002b0001f003700e284440054a0b4009905ba003e
:1002c000e284440054a0b4009906ba00e2844400d9
:1002d00054a0b4000006eb00476fde00fd07b2003b
:1002e000ae018800636ce10003003a00eaff0700fa
:1002f0000000eb000e003700606ce10008003a00df
:10030000004deb000a05e800020039003420ec0043
:100310000af0a0008b05e900f9ff3e000400370059
:100320006168e100010032000086eb000b0007006d
:1003300019c7ba001905ba000e04e00003003a001c
:100340000a00e000dbff3a0000000600fe07b200f2
:10035000ae0288008a047800f5ff37000cd0a300b5
:10036000e20f4d001c00390089027800354dba00bb
:100370000a05e800020039003420ec000af0a00071
:100380008b05e9000f003200254dba000a05e80090
:10039000020039003420ec000af0a0008b05e900cf
:1003a000080032000c00e0000600320015cdba0053
:1003b0000a05e800020039003420ec000af0a00031
:1003c0008b05e9008984e80054a0b4000b00e0002c
:1003d000e2ff3a00000006009902ba00055d7800cd
:1003e0008b05e900f7ff3200c82ade00055d7800c2
:1003f0008b05e900f3ff32000c00e000f1ff320052
:1004000019ddba00eeff37000040da000000fe0000
:0404100000000500e3
:020000040000fa
:100414000400fa00004f78000e80e800010878001c
:100424000028ef000228ef009e4078006fc06000b3
:100434000080fb006f0060004800dd000240800087
:10044400f10f2f008100610001007000004088005e
:100454000188a80001a8a80001c8a90001e8a80013
:1004640030c6b30002e8b7000e80e8001000780040
:100474004800de000040780003e8b7000080200058
:10048400730007000028ef000228ef009e40780068
:100494006fc060000080fb006f0060004800dd005a
:1004a40002408000f10f2f00810061000100700004
:1004b400004088000188a80001a8a80001c8a9007c
:1004c40001e8a80020c6b30002e8b7000e80e800e7
:1004d400100078000040780003e8b7000080200096
:1004e4005b0007000080fa00000006000400fa0028
:1004f400004f78000e80e800010878000028ef0023
:100504000228ef009e4078006fc060000080fb006e
:100514006f0060004800dd0002408000f10f2f00f2
:100524008100610001007000004088000188a8007b
:1005340001a8a80001c8a90001e8a80060c0b30090
:1005440002e8b7000e80e800100078000040780050
:100554000074a10003e8b700008020003c000700fd
:100564000080fa00000006000400fa00004f780042
:100574000e80e800010878000028ef000228ef0050
:100584009e4078006fc060000080fb006f00600038
:100594004800dd0002408000f10f2f00810061005f
:1005a40001007000004088000188a80001a8a8008c
:1005b40001c8a90001e8a80060c2b30002e8b700be
:1005c4000e80e80010007800004078000074a1005c
:1005d40003e8b700008020001d0007000028ef009a
:1005e4000228ef009e4078006fc060000080fb008e
:1005f4006f0060004800dd0002408000f10f2f0012
:100604008100610001007000004088000188a8009a
:1006140001a8a80001c8a90001e8a80060c0b300af
:1006240002e8b7000e80e8001000780000004000e7
:100634004800de00004078000074a10003e8b70021
:1006440000802000020007000080fa00000006007d
:100654000400fa008e80e800800878000040eb0077
:10066400004f780001c8bf009c00070000fa20007a
:1006740001002000e200070002c8bf009700070045
:1006840000fa200001002000dd00070003c8bf00bd
:100694009200070000fa200001002000d8000700a3
:1006a4001e4078000080fa00000006000800fa00ee
:1006b400004f78000e80e8000108780064004700cd
:1006c4000288be000028ef000228ef0000cfb3002c
:1006d40001e8b7000268ef0000c2b30003e8b70006
:1006e40000802000daff07000028ef000228ef0056
:1006f4000168ef00d0c3b30002e8b7001e417800e0
:10070400318020008248780000802000d0ff07005c
:100714000028ef000228ef000e80e80010007800a7
:100724004800de000040780001e8b7000e80e800d1
:10073400100078000040780002e8b70040c0b30021
:1007440003e8b70000802000c1ff07000028ef0085
:100754000228ef00640047001000be004508de00d8
:10076400004078000074a10001e8b700640047006d
:100774001000be004209dd004e00de0000007100e2
:10078400ce08de00004078000074a10002e8b70043
:10079400640047001000be004909dd004700de0088
:1007a40000007100c708de00004078000074a1005a
:1007b40003e8b70000802000a5ff07000028ef0031
:1007c4000228ef0064004700100078000040780021
:1007d4000074a10001e8b70070cfb30002e8b700cd
:1007e400f0c9b30003e8b7000080200098ff0700b9
:1007f4000080fa00000006000800fa000000eb0088
:10080400000f78008000eb000e80e80001087800fb
:100814008000eb0064004700010878008000eb00d2
:1008240066004700010878006400470090007800e3
:10083400000c20008100700064004700010878006b
:100844009e007800e11e8800640047009000780054
:10085400f11e880090012000201f88006910090003
:10086400000000000080fa00000006000000fa000a
:10087400dde3a800df83a800df43a8000080fa00be
:10088400000006000000fa00dde3a900df83a900f0
:10089400df43a9000080fa00000006000000fa000f
:1008a400f01e8000620060000000e00001003200e1
:1008b400de23a900f01e8000610060000000e0005b
:1008c40003003a00101f8000004078000100370048
:1008d4000040eb000080fa00000006000200fa006d
:1008e400004f780000000000f11e8000001020007e
:1008f400008060000000e000fbff32001e80fb006f
:10090400001f88000080fa00000006000200fa00c0
:10091400000f7800040037001e00780010407800b3
:10092400eeff07001e0fe8001e007800104078005c
:100934000004e000f8ff3a000080fa00000006001e
:100944000200fa000000eb00000f7800dbc6a900eb
:10095400db86a800dfc6a80000902000d103200099
:1009640027000700dfc6a900a3ff0700bfff070099
:10097400011020000040eb00a5fe07009e00780057
:100984000040eb00f8fe0700006b23009e00780097
:10099400808f500017003a0080322200000f780048
:1009a400f03680004e00de00614060000004a200ca
:1009b400614060000080fb00610060004e00dd00cb
:1009c400f136800001e0a10001007000f0368800db
:1009d40000d022001113200009000700011020009c
:1009e4000040eb008afe07008000eb000040eb00b3
:1009f400ddfe07009e0078006a8f4000dcff3700b0
:020000040000fa
:100a0400f03fb1000180b10006003500ee0309009b
:100a140000000000403fb1000180b100fbff3d0039
:100a24001000b000203fb000020035000080090033
:080a34000000000000000600b4
:020000040000fa
:100a3c00000800000400000080000000000000001e
:020000040000fa
:020000040002f8
:04be0000ffffff0041
:020000040000fa
:020000040002f8
:04be2000ff1f000000
:020000040000fa
:020000040002f8
:04be300062ffff00ae
:020000040000fa
:020000040002f8
:04be38009affff006e
:020000040000fa
:020000040002f8
:04be40009fffff0061
:020000040000fa
:020000040002f8
:04be4800f4ffff0004
:020000040000fa
:020000040002f8
:04be5000deffff0012
:020000040000fa
:020000040002f8
:04be5800f7ffff00f1
:00000001FF
