:020000040000fa
:080000000001040000000000f3
:020000040000fa
:0400080004020000ee
:020000040000fa
:04000c0004020000ea
:020000040000fa
:0400100004020000e6
:020000040000fa
:0400140004020000e2
:020000040000fa
:0400180004020000de
:020000040000fa
:04001c0004020000da
:020000040000fa
:0400200004020000d6
:020000040000fa
:0400240004020000d2
:020000040000fa
:0400280004020000ce
:020000040000fa
:04002c0004020000ca
:020000040000fa
:0400300004020000c6
:020000040000fa
:0400340004020000c2
:020000040000fa
:0400380004020000be
:020000040000fa
:04003c0004020000ba
:020000040000fa
:0400400004020000b6
:020000040000fa
:0400440004020000b2
:020000040000fa
:0400480004020000ae
:020000040000fa
:04004c0004020000aa
:020000040000fa
:0400500004020000a6
:020000040000fa
:0400540004020000a2
:020000040000fa
:04005800040200009e
:020000040000fa
:04005c00040200009a
:020000040000fa
:040060000402000096
:020000040000fa
:040064000402000092
:020000040000fa
:04006800040200008e
:020000040000fa
:04006c00040200008a
:020000040000fa
:040070000402000086
:020000040000fa
:040074000402000082
:020000040000fa
:04007800040200007e
:020000040000fa
:04007c00040200007a
:020000040000fa
:040080000402000076
:020000040000fa
:040084000402000072
:020000040000fa
:04008800040200006e
:020000040000fa
:04008c00040200006a
:020000040000fa
:040090000402000066
:020000040000fa
:040094000402000062
:020000040000fa
:04009800040200005e
:020000040000fa
:04009c00040200005a
:020000040000fa
:0400a0000402000056
:020000040000fa
:0400a4000402000052
:020000040000fa
:0400a800040200004e
:020000040000fa
:0400ac00040200004a
:020000040000fa
:0400b0000402000046
:020000040000fa
:0400b4000402000042
:020000040000fa
:0400b800040200003e
:020000040000fa
:0400bc00040200003a
:020000040000fa
:0400c0000402000036
:020000040000fa
:0400c4000402000032
:020000040000fa
:0400c800040200002e
:020000040000fa
:0400cc00040200002a
:020000040000fa
:0400d0000402000026
:020000040000fa
:0400d4000402000022
:020000040000fa
:0400d800040200001e
:020000040000fa
:0400dc00040200001a
:020000040000fa
:0400e0000402000016
:020000040000fa
:0400e4000402000012
:020000040000fa
:0400e800040200000e
:020000040000fa
:0400ec00040200000a
:020000040000fa
:0400f0000402000006
:020000040000fa
:0400f4000402000002
:020000040000fa
:0400f80004020000fe
:020000040000fa
:0400fc0004020000fa
:020000040000fa
:0401000004020000f5
:020000040000fa
:0401040004020000f1
:020000040000fa
:0401080004020000ed
:020000040000fa
:04010c0004020000e9
:020000040000fa
:0401100004020000e5
:020000040000fa
:0401140004020000e1
:020000040000fa
:0401180004020000dd
:020000040000fa
:04011c0004020000d9
:020000040000fa
:0401200004020000d5
:020000040000fa
:0401240004020000d1
:020000040000fa
:0401280004020000cd
:020000040000fa
:04012c0004020000c9
:020000040000fa
:0401300004020000c5
:020000040000fa
:0401340004020000c1
:020000040000fa
:0401380004020000bd
:020000040000fa
:04013c0004020000b9
:020000040000fa
:0401400004020000b5
:020000040000fa
:0401440004020000b1
:020000040000fa
:0401480004020000ad
:020000040000fa
:04014c0004020000a9
:020000040000fa
:0401500004020000a5
:020000040000fa
:0401540004020000a1
:020000040000fa
:04015800040200009d
:020000040000fa
:04015c000402000099
:020000040000fa
:040160000402000095
:020000040000fa
:040164000402000091
:020000040000fa
:04016800040200008d
:020000040000fa
:04016c000402000089
:020000040000fa
:040170000402000085
:020000040000fa
:040174000402000081
:020000040000fa
:04017800040200007d
:020000040000fa
:04017c000402000079
:020000040000fa
:040180000402000075
:020000040000fa
:040184000402000071
:020000040000fa
:04018800040200006d
:020000040000fa
:04018c000402000069
:020000040000fa
:040190000402000065
:020000040000fa
:040194000402000061
:020000040000fa
:04019800040200005d
:020000040000fa
:04019c000402000059
:020000040000fa
:0401a0000402000055
:020000040000fa
:0401a4000402000051
:020000040000fa
:0401a800040200004d
:020000040000fa
:0401ac000402000049
:020000040000fa
:0401b0000402000045
:020000040000fa
:0401b4000402000041
:020000040000fa
:0401b800040200003d
:020000040000fa
:0401bc000402000039
:020000040000fa
:0401c0000402000035
:020000040000fa
:0401c4000402000031
:020000040000fa
:0401c800040200002d
:020000040000fa
:0401cc000402000029
:020000040000fa
:0401d0000402000025
:020000040000fa
:0401d4000402000021
:020000040000fa
:0401d800040200001d
:020000040000fa
:0401dc000402000019
:020000040000fa
:0401e0000402000015
:020000040000fa
:0401e4000402000011
:020000040000fa
:0401e800040200000d
:020000040000fa
:0401ec000402000009
:020000040000fa
:0401f0000402000005
:020000040000fa
:0401f4000402000001
:020000040000fa
:0401f80004020000fd
:020000040000fa
:0401fc0004020000f9
:020000040000fa
:100200002f8020000eff27000e0188000000000054
:10021000000020000000e000020032000001200089
:100220002002880014000700790007000000e000a9
:1002300003003a00806f2000010020000200370018
:100240000000200001002000810f7000010032003a
:1002500014000700000020000000e000020032004f
:100260000000020000000000ac06020000000000d8
:100270000040da000000fe004440a900800c20008d
:100280000000e00003003200002020009001880000
:100290004440a800000006008a1f78008b1f7800e9
:1002a00000000600a1028800800478000000eb0036
:1002b0001f003700e284440054a0b4009905ba003e
:1002c000e284440054a0b4009906ba00e2844400d9
:1002d00054a0b4000006eb00476fde00fd07b2003b
:1002e000ae018800636ce10003003a00eaff0700fa
:1002f0000000eb000e003700606ce10008003a00df
:10030000004deb000a05e800020039003420ec0043
:100310000af0a0008b05e900f9ff3e000400370059
:100320006168e100010032000086eb000b0007006d
:1003300019c7ba001905ba000e04e00003003a001c
:100340000a00e000dbff3a0000000600fe07b200f2
:10035000ae0288008a047800f5ff37000cd0a300b5
:10036000e20f4d001c00390089027800354dba00bb
:100370000a05e800020039003420ec000af0a00071
:100380008b05e9000f003200254dba000a05e80090
:10039000020039003420ec000af0a0008b05e900cf
:1003a000080032000c00e0000600320015cdba0053
:1003b0000a05e800020039003420ec000af0a00031
:1003c0008b05e9008984e80054a0b4000b00e0002c
:1003d000e2ff3a00000006009902ba00055d7800cd
:1003e0008b05e900f7ff3200c82ade00055d7800c2
:1003f0008b05e900f3ff32000c00e000f1ff320052
:1004000019ddba00eeff37000040da000000fe0000
:10041000000005008001780002003700b159780023
:100420000201e9000200e000fcff3a0000000600c3
:020000040000fa
:100430002077000069740000682000004e6f000003
:1004400020700000617200006974000079200000d3
:1004500062690000740000002077000069740000e9
:10046000682000004f6400006420000070610000fc
:100470007269000074790000206200006974000055
:10048000002000007769000074680000204500002b
:10049000766500006e200000706100007269000047
:1004a00074790000206200006974000000200000e0
:1004b0007769000074680000204d00006172000040
:1004c0006b200000626900007400000020770000cb
:1004d0006974000068200000537000006163000030
:1004e000652000006269000074000000686500007b
:1004f0006c6c00006f200000776f0000726c0000d1
:10050000640000002077000069740000682000008b
:100510004e6f0000207000006172000069740000de
:10052000792000006269000074000000207700005c
:1005300069740000682000004f640000642000001f
:100540007061000072690000747900002062000090
:1005500069740000002000007769000074680000e2
:1005600020450000766500006e20000070610000ec
:100570007269000074790000206200006974000054
:10058000002000007769000074680000204d000022
:10059000617200006b2000006269000074000000be
:1005a000207700006974000068200000537000008c
:1005b00061630000652000006269000074000000b3
:020000040000fa
:1005c0000200fa00000f78006266a9006246a900e6
:1005d0001e0078001001070020010700e0c4b300ee
:1005e000390107000040eb00300007002d01070033
:1005f00000a62e0001002000ef01070000c3b30099
:100600003000070000e2240001002000ea0107009a
:1006100000c3b3002b000700801b20000100200056
:10062000e501070000c3b30026000700000a200010
:1006300001002000e001070020c0b30021000700f6
:1006400080c2b3001f000700000a20000100200044
:10065000d901070080c0b3001a000700000a20007b
:1006600001002000d401070010c0b30015000700ee
:1006700000f4210001002000cf01070060c0b3009a
:1006800010000700000a200001002000ca01070036
:10069000c0c0b3000b000700000a200001002000ca
:1006a000c50107000080fa00000006000200fa0001
:1006b000004f78001e407800030107000080fa0018
:1006c000000006000400fa008e80e80080487800f0
:1006d000e2000700e0c4b300fb0007000e80e80062
:1006e0009040780000cfb30000c060000034a0004c
:1006f000004f78001e407800ecff07001e40780095
:100700000024a000e9ff07001e4078000024a1009b
:10071000e6ff07000e80e800104078000080fb0034
:100720004400dd00004078000034a000004f780055
:100730001e407800ddff07001e4078000024a00066
:10074000daff07001e4078000024a100d7ff070051
:10075000d40007000080fa00000006000400fa0040
:100760008e80e80080487800bc000700e0c4b30039
:10077000d50007000e80e8009040780000cfb3005d
:1007800000c060009040b300004f78001e40780029
:10079000c6ff07001e4078000024a000c3ff07002a
:1007a0001e4078000024a100c0ff07000e80e80072
:1007b000104078000080fb004400dd00004078001d
:1007c0009040b300004f78001e407800b7ff07004c
:1007d0001e4078000024a000b4ff07001e407800ef
:1007e0000024a100b1ff0700ae0007000080fa005e
:1007f000000006000400fa000e81e80000497800bd
:1008000063004700014878000e80e800104078003f
:10081000e24f50000300340021c0b3000e80e80016
:10082000014878000e80e800104078000000fb00ce
:10083000e20f50000f003200e20f500003003c00b6
:10084000e10f50000600320019003700e30f50009e
:100850000d003200e40f5000100032001400370089
:1008600000c8b300004f780010c0b30001e8b70023
:100870000f00370000ccb300004f780020c0b30059
:1008800001e8b7000a00370040c9b300004f780004
:1008900030c0b30001e8b7000500370040cdb30019
:1008a000004f780040c0b30001e8b700000000002e
:1008b00063004700904078001e40780000c0400070
:1008c0000040e900004f78001e4078007dff0700df
:1008d0000080fa00000006000200fa00004f7800d5
:1008e0001e4078009dff07000080fa00000006000f
:1008f0000200fa00004f78001e00fb00ea0f5000d3
:1009000012003200ea0f500003003c00e80f5000d4
:10091000150032001b003700ec0f500003003200be
:10092000ed0f5000130032001600370010c0b30066
:1009300064ff070010c0b30001e8b70000f4210015
:10094000010020001c0107001100370001c8bf0092
:100950000040e80001e8b70001c8bf0011c0b300c3
:10096000a4ff07000a00370000c1b30055ff0700cd
:100970000700370001c8bf0011c0b3009dff07008a
:10098000030037001e40780074ff070000000000dd
:100990000080fa00000006000200fa00000f780054
:1009a000040037001e007800104078006bff07003d
:1009b0001e0fe8001e007800104078000004e000e0
:1009c000f8ff3a000080fa00000006000000fa007c
:1009d0000040eb000080fa00000006000200fa0070
:1009e00000c4b30037ff07000000eb00000f7800e1
:1009f0000300370020c0b30032ff07001e0fe800dd
:100a0000f00320009e007800808f5000f9ff340032
:100a10000080fa00000006000200fa00000f7800d3
:100a20006646a8006666a8006846a8006866a80032
:100a30006246a9006266a9000000210050258800d6
:100a4000abe4a9009e00780041258800ab24a900f2
:100a5000abe4a8000080fa00000006000000fa00e5
:100a6000aa04a8000000000050258000610060007a
:100a70000000e000fcff3a000080fa0000000600e1
:100a80000000fa00aa24a800000000005025800001
:100a9000620060000000e000fcff3a000080fa0005
:100aa000000006000000fa00aa44a80000000000b0
:100ab00050258000640060000000e000fcff3a0068
:100ac0000080fa00000006000200fa00004f7800e3
:100ad0001e80fb003025880000000000712580008a
:100ae00000002400008060000000e000fbff3a00ee
:100af0000080fa00000006000200fa00004f7800b3
:100b0000aa64a80000000000502580006800600072
:100b10000000e000fcff3a001e4078000004e00006
:100b200002003200aaa4a80001003700aaa4a9006c
:100b3000aa84a8000000000050258000700060001a
:100b40000000e000fcff3a00202580000040780013
:100b50000080fa00000006000400fa00004f780050
:100b60000e00e800014878000e80e8000248780096
:100b7000baff07001e407800d3ff07000e00e80010
:100b800010407800d0ff07000e80e8001040780089
:100b9000cdff0700c3ff07000080fa000000060039
:100ba0000800fa000e82e800004a7800630047005f
:100bb000014878006400470002087800660047009a
:100bc00003487800a5ff07000e80e8001040780079
:100bd000bdff07006300470010407800baff070020
:100be0000040eb00004f7800070037001e80fb003c
:100bf000e400470091007800008040001040780039
:100c0000b1ff07001e4fe800660047001040780063
:100c10009e40780080cf5000f4ff3900a1ff07000c
:100c20000080fa00000006000400fa000e81e800cf
:100c300000497800630047000148780087ff0700fb
:100c40000e80e800104078009fff07006300470017
:100c5000104078009cff070089ff07000e80e80025
:100c6000104078000004a00097ff070010c0b300f8
:100c7000a1ff0700004f78008aff07001e407800a0
:100c80000080fa00000006000800fa00881f7800c3
:100c90000e82e800004a78006300470001487800af
:100ca00064004700020878006600470003487800a7
:100cb0006aff07000e80e8001040780082ff0700fe
:100cc00063004700104078007fff07006cff0700bb
:100cd0000e80e800104078000004a0007aff0700b2
:100ce0000040eb00004f7800120037001e80fb0030
:100cf000e400470091007800008440009e80fb00e3
:100d000066004700104078000080fb000000e9000a
:100d10000080680000f0a7000000ea000000e90081
:100d20004f00de000040780073ff0700004c7800a1
:100d30001e4fe80066004700104078009e40780093
:100d400080cf5000e9ff390056ff07004f047800bc
:100d50000080fa00000006001400fa00e226ef000e
:100d6000dbc6a900dfc6a8002001200014fe070092
:100d7000dfc6a80000f82400210120000e000700b3
:100d8000dfc6a90000f82400210120000a000700a6
:100d9000c2002000612728000e0078009dfd07009a
:100da0000e007800fcfe070000482800e10120004a
:080db00001000700eeff37000f
:020000040000fa
:100db800f03fb1000180b10006003500ee030900e4
:100dc80000000000403fb1000180b100fbff3d0082
:100dd8001000b000203fb00002003500008009007c
:080de8000000000000000600fd
:020000040000fa
:100df0000008000002000000800000000000000069
:020000040000fa
:020000040002f8
:04be0000ffffff0041
:020000040000fa
:020000040002f8
:04be2000ff1f000000
:020000040000fa
:020000040002f8
:04be300062ffff00ae
:020000040000fa
:020000040002f8
:04be38009affff006e
:020000040000fa
:020000040002f8
:04be40009fffff0061
:020000040000fa
:020000040002f8
:04be4800f4ffff0004
:020000040000fa
:020000040002f8
:04be5000deffff0012
:020000040000fa
:020000040002f8
:04be5800f7ffff00f1
:00000001FF
