:020000040000fa
:080000000001040000000000f3
:020000040000fa
:0400080004020000ee
:020000040000fa
:04000c0004020000ea
:020000040000fa
:0400100004020000e6
:020000040000fa
:0400140004020000e2
:020000040000fa
:0400180004020000de
:020000040000fa
:04001c0004020000da
:020000040000fa
:0400200004020000d6
:020000040000fa
:0400240004020000d2
:020000040000fa
:0400280004020000ce
:020000040000fa
:04002c0004020000ca
:020000040000fa
:0400300004020000c6
:020000040000fa
:0400340004020000c2
:020000040000fa
:0400380004020000be
:020000040000fa
:04003c0004020000ba
:020000040000fa
:0400400004020000b6
:020000040000fa
:0400440004020000b2
:020000040000fa
:0400480004020000ae
:020000040000fa
:04004c0004020000aa
:020000040000fa
:0400500004020000a6
:020000040000fa
:0400540004020000a2
:020000040000fa
:04005800040200009e
:020000040000fa
:04005c00040200009a
:020000040000fa
:040060000402000096
:020000040000fa
:040064000402000092
:020000040000fa
:04006800040200008e
:020000040000fa
:04006c00040200008a
:020000040000fa
:040070000402000086
:020000040000fa
:040074000402000082
:020000040000fa
:04007800040200007e
:020000040000fa
:04007c00040200007a
:020000040000fa
:040080000402000076
:020000040000fa
:040084000402000072
:020000040000fa
:04008800040200006e
:020000040000fa
:04008c00040200006a
:020000040000fa
:040090000402000066
:020000040000fa
:040094000402000062
:020000040000fa
:04009800040200005e
:020000040000fa
:04009c00040200005a
:020000040000fa
:0400a0000402000056
:020000040000fa
:0400a4000402000052
:020000040000fa
:0400a800040200004e
:020000040000fa
:0400ac00040200004a
:020000040000fa
:0400b0000402000046
:020000040000fa
:0400b4000402000042
:020000040000fa
:0400b800040200003e
:020000040000fa
:0400bc00040200003a
:020000040000fa
:0400c0000402000036
:020000040000fa
:0400c4000402000032
:020000040000fa
:0400c800040200002e
:020000040000fa
:0400cc00040200002a
:020000040000fa
:0400d0000402000026
:020000040000fa
:0400d4000402000022
:020000040000fa
:0400d800040200001e
:020000040000fa
:0400dc00040200001a
:020000040000fa
:0400e0000402000016
:020000040000fa
:0400e4000402000012
:020000040000fa
:0400e800040200000e
:020000040000fa
:0400ec00040200000a
:020000040000fa
:0400f0000402000006
:020000040000fa
:0400f4000402000002
:020000040000fa
:0400f80004020000fe
:020000040000fa
:0400fc0004020000fa
:020000040000fa
:0401000004020000f5
:020000040000fa
:0401040004020000f1
:020000040000fa
:0401080004020000ed
:020000040000fa
:04010c0004020000e9
:020000040000fa
:0401100004020000e5
:020000040000fa
:0401140004020000e1
:020000040000fa
:0401180004020000dd
:020000040000fa
:04011c0004020000d9
:020000040000fa
:0401200004020000d5
:020000040000fa
:0401240004020000d1
:020000040000fa
:0401280004020000cd
:020000040000fa
:04012c0004020000c9
:020000040000fa
:0401300004020000c5
:020000040000fa
:0401340004020000c1
:020000040000fa
:0401380004020000bd
:020000040000fa
:04013c0004020000b9
:020000040000fa
:0401400004020000b5
:020000040000fa
:0401440004020000b1
:020000040000fa
:0401480004020000ad
:020000040000fa
:04014c0004020000a9
:020000040000fa
:0401500004020000a5
:020000040000fa
:0401540004020000a1
:020000040000fa
:04015800040200009d
:020000040000fa
:04015c000402000099
:020000040000fa
:040160000402000095
:020000040000fa
:040164000402000091
:020000040000fa
:04016800040200008d
:020000040000fa
:04016c000402000089
:020000040000fa
:040170000402000085
:020000040000fa
:040174000402000081
:020000040000fa
:04017800040200007d
:020000040000fa
:04017c000402000079
:020000040000fa
:040180000402000075
:020000040000fa
:040184000402000071
:020000040000fa
:04018800040200006d
:020000040000fa
:04018c000402000069
:020000040000fa
:040190000402000065
:020000040000fa
:040194000402000061
:020000040000fa
:04019800040200005d
:020000040000fa
:04019c000402000059
:020000040000fa
:0401a0000402000055
:020000040000fa
:0401a4000402000051
:020000040000fa
:0401a800040200004d
:020000040000fa
:0401ac000402000049
:020000040000fa
:0401b0000402000045
:020000040000fa
:0401b4000402000041
:020000040000fa
:0401b800040200003d
:020000040000fa
:0401bc000402000039
:020000040000fa
:0401c0000402000035
:020000040000fa
:0401c4000402000031
:020000040000fa
:0401c800040200002d
:020000040000fa
:0401cc000402000029
:020000040000fa
:0401d0000402000025
:020000040000fa
:0401d4000402000021
:020000040000fa
:0401d800040200001d
:020000040000fa
:0401dc000402000019
:020000040000fa
:0401e0000402000015
:020000040000fa
:0401e4000402000011
:020000040000fa
:0401e800040200000d
:020000040000fa
:0401ec000402000009
:020000040000fa
:0401f0000402000005
:020000040000fa
:0401f4000402000001
:020000040000fa
:0401f80004020000fd
:020000040000fa
:0401fc0004020000f9
:020000040000fa
:100200004f8020000eff27000e0188000000000034
:10021000000020000000e000020032000001200089
:100220002002880014000700790007000000e000a9
:1002300003003a00e04420000100200002003700e3
:100240000000200001002000810f7000010032003a
:1002500014000700000020000000e000020032004f
:100260000000020000000000ce03020000000000b9
:100270000040da000000fe004440a90020002000f9
:100280000000e00003003200100020009001880010
:100290004440a800000006008a1f78008b1f7800e9
:1002a00000000600a1028800800478000000eb0036
:1002b0001f003700e284440054a0b4009905ba003e
:1002c000e284440054a0b4009906ba00e2844400d9
:1002d00054a0b4000006eb00476fde00fd07b2003b
:1002e000ae018800636ce10003003a00eaff0700fa
:1002f0000000eb000e003700606ce10008003a00df
:10030000004deb000a05e800020039003420ec0043
:100310000af0a0008b05e900f9ff3e000400370059
:100320006168e100010032000086eb000b0007006d
:1003300019c7ba001905ba000e04e00003003a001c
:100340000a00e000dbff3a0000000600fe07b200f2
:10035000ae0288008a047800f5ff37000cd0a300b5
:10036000e20f4d001c00390089027800354dba00bb
:100370000a05e800020039003420ec000af0a00071
:100380008b05e9000f003200254dba000a05e80090
:10039000020039003420ec000af0a0008b05e900cf
:1003a000080032000c00e0000600320015cdba0053
:1003b0000a05e800020039003420ec000af0a00031
:1003c0008b05e9008984e80054a0b4000b00e0002c
:1003d000e2ff3a00000006009902ba00055d7800cd
:1003e0008b05e900f7ff3200c82ade00055d7800c2
:1003f0008b05e900f3ff32000c00e000f1ff320052
:1004000019ddba00eeff37000040da000000fe0000
:0404100000000500e3
:020000040000fa
:100414000000fa0029e1a90029a1a90041098000ee
:10042400f07f2e00008060004009880041098000b0
:10043400003020000100700040098800410980005c
:10044400f0f32f00008060004009880028a1a80074
:100454002881a9002841a90041098000c0ff2f007c
:1004640000806000400988002be1a9002ba1a900ad
:100474002b81a9002a61ef002de1a8002dc1a8005d
:100484002da1a9002d81a900610980000060200030
:1004940001007000600988002d01a8002fe1a90067
:1004a4002fc1a9002e01a80031e1a90031c1a90082
:1004b40031a1a8003141a8003121a8003101a800d0
:1004c40081098000f0f92f00008060008009880015
:1004d400a1098000c003200001007000a009880069
:1004e40029e1a8000080fa00000006000000fa00dc
:1004f4009f46a9009ea6a9009e86a9007fe6a900a2
:1005040077e6a90062a6a900b206a900b226a9004e
:10051400b246a900b266a900ba86a900b2a6a9008b
:10052400b2c6a900b2e6a9009135800000f02f0000
:100534000080600090358800b206a900b226a900a8
:10054400b246a900b266a900b286a900b2a6a90063
:10055400b2c6a900b2e6a9000080fa0000000600b5
:100564000200fa000000eb00000f7800b1338000b5
:10057400003c200001007000b0338800513480003a
:1005840000c320000100700050348800a346a90075
:10059400a2a6a9007be6a900c1338000003c20008c
:1005a400008060001e0f70001e0078004600de0010
:1005b400000f780061348000000320000080600098
:1005c4001e0f70006134800000c0200000806000b5
:1005d4004400de001e0f7000a2a6a800a346a800d7
:1005e4001e007800004078000080fa000000060039
:1005f4000200fa000000eb00000f7800b133800025
:10060400003c200001007000b033880051348000a9
:1006140000c320000100700050348800a346a900e4
:10062400a2a6a9007be6a800c1338000003c2000fc
:10063400008060001e0f70001e0078004600de007f
:10064400000f780061348000000320000080600007
:100654001e0f70006134800000c020000080600024
:100664004400de001e0f7000a2a6a800a346a80046
:100674001e007800004078000080fa0000000600a8
:100684000200fa00004f78009135800000f02f003e
:100694000080600090358800a346a9004000200037
:1006a400010020006e000700a286a900400020007f
:1006b400010020006a0007007be6a900400020003a
:1006c4000100200066000700b135800000f02f0013
:1006d400808060001e80fb0001007000b03588003f
:1006e400a286a80040002000010020005c00070052
:1006f400a346a80040002000010020005800070085
:100704000080fa00000006000400fa008e80e80071
:10071400804878000000eb00000f7800a346a90091
:1007240080022000010020004d000700a286a900dd
:100734008002200001002000490007007be6a90098
:10074400800220000100200045000700b606a90031
:10075400b626a900b646a900b666a900b686a800c2
:10076400b6a6a800b6c6a800b6e6a800a286a80049
:10077400800220000100200039000700a346a800e1
:1007840080022000010020003500070010c0b300e3
:100794000080fa00000006000200fa000040eb00ae
:1007a400004f7800dbc6a9007e26ef00a626ef00e6
:1007b400ba26ef009f46a9009ea6a9009e86a9001e
:1007c40077e6a90062a6a800a346a800a2a6a800ee
:1007d400a286a800dfc6a80000cbb300caff0700aa
:1007e40000ee2200010020001d00070060c0b300dd
:1007f400c5ff070000ee22000100200018000700da
:1008040070c0b300c0ff070000ee2200010020000a
:100814001300070000f82400210120001000070045
:10082400f03680004e00de00614060000004a2004b
:10083400614060000080fb00610060004e00dd004c
:10084400f136800001e0a10001007000f03688005c
:1008540000902000d103200001000700deff3700d4
:020000040000fa
:10086400f03fb1000180b10006003500ee0309003d
:1008740000000000403fb1000180b100fbff3d00db
:100884001000b000203fb0000200350000800900d5
:08089400000000000000060056
:020000040000fa
:10089c0000080000040000008000000000000000c0
:020000040000fa
:020000040002f8
:04be0000ffffff0041
:020000040000fa
:020000040002f8
:04be2000ff1f000000
:020000040000fa
:020000040002f8
:04be300062ffff00ae
:020000040000fa
:020000040002f8
:04be38009affff006e
:020000040000fa
:020000040002f8
:04be40009fffff0061
:020000040000fa
:020000040002f8
:04be4800f4ffff0004
:020000040000fa
:020000040002f8
:04be5000deffff0012
:020000040000fa
:020000040002f8
:04be5800f7ffff00f1
:00000001FF
