:020000040000fa
:080000000001040000000000f3
:020000040000fa
:040008002c020000c6
:020000040000fa
:04000c002c020000c2
:020000040000fa
:040010002c020000be
:020000040000fa
:040014002c020000ba
:020000040000fa
:040018002c020000b6
:020000040000fa
:04001c002c020000b2
:020000040000fa
:040020002c020000ae
:020000040000fa
:040024002c020000aa
:020000040000fa
:040028002c020000a6
:020000040000fa
:04002c002c020000a2
:020000040000fa
:040030002c0200009e
:020000040000fa
:040034002c0200009a
:020000040000fa
:040038002c02000096
:020000040000fa
:04003c002c02000092
:020000040000fa
:040040002c0200008e
:020000040000fa
:040044002c0200008a
:020000040000fa
:0400480004020000ae
:020000040000fa
:04004c002c02000082
:020000040000fa
:040050002c0200007e
:020000040000fa
:040054002c0200007a
:020000040000fa
:040058002c02000076
:020000040000fa
:04005c002c02000072
:020000040000fa
:040060002c0200006e
:020000040000fa
:040064002c0200006a
:020000040000fa
:040068002c02000066
:020000040000fa
:04006c002c02000062
:020000040000fa
:040070002c0200005e
:020000040000fa
:040074002c0200005a
:020000040000fa
:040078002c02000056
:020000040000fa
:04007c002c02000052
:020000040000fa
:040080002c0200004e
:020000040000fa
:040084002c0200004a
:020000040000fa
:040088002c02000046
:020000040000fa
:04008c002c02000042
:020000040000fa
:040090002c0200003e
:020000040000fa
:040094002c0200003a
:020000040000fa
:040098002c02000036
:020000040000fa
:04009c002c02000032
:020000040000fa
:0400a0002c0200002e
:020000040000fa
:0400a4002c0200002a
:020000040000fa
:0400a8002c02000026
:020000040000fa
:0400ac002c02000022
:020000040000fa
:0400b0002c0200001e
:020000040000fa
:0400b4002c0200001a
:020000040000fa
:0400b8002c02000016
:020000040000fa
:0400bc002c02000012
:020000040000fa
:0400c0002c0200000e
:020000040000fa
:0400c4002c0200000a
:020000040000fa
:0400c8002c02000006
:020000040000fa
:0400cc002c02000002
:020000040000fa
:0400d0002c020000fe
:020000040000fa
:0400d4002c020000fa
:020000040000fa
:0400d8002c020000f6
:020000040000fa
:0400dc002c020000f2
:020000040000fa
:0400e0002c020000ee
:020000040000fa
:0400e4002c020000ea
:020000040000fa
:0400e8002c020000e6
:020000040000fa
:0400ec002c020000e2
:020000040000fa
:0400f0002c020000de
:020000040000fa
:0400f4002c020000da
:020000040000fa
:0400f8002c020000d6
:020000040000fa
:0400fc002c020000d2
:020000040000fa
:040100002c020000cd
:020000040000fa
:040104002c020000c9
:020000040000fa
:040108002c020000c5
:020000040000fa
:04010c002c020000c1
:020000040000fa
:040110002c020000bd
:020000040000fa
:040114002c020000b9
:020000040000fa
:040118002c020000b5
:020000040000fa
:04011c002c020000b1
:020000040000fa
:040120002c020000ad
:020000040000fa
:040124002c020000a9
:020000040000fa
:040128002c020000a5
:020000040000fa
:04012c002c020000a1
:020000040000fa
:040130002c0200009d
:020000040000fa
:040134002c02000099
:020000040000fa
:040138002c02000095
:020000040000fa
:04013c002c02000091
:020000040000fa
:040140002c0200008d
:020000040000fa
:040144002c02000089
:020000040000fa
:040148002c02000085
:020000040000fa
:04014c002c02000081
:020000040000fa
:040150002c0200007d
:020000040000fa
:040154002c02000079
:020000040000fa
:040158002c02000075
:020000040000fa
:04015c002c02000071
:020000040000fa
:040160002c0200006d
:020000040000fa
:040164002c02000069
:020000040000fa
:040168002c02000065
:020000040000fa
:04016c002c02000061
:020000040000fa
:040170002c0200005d
:020000040000fa
:040174002c02000059
:020000040000fa
:040178002c02000055
:020000040000fa
:04017c002c02000051
:020000040000fa
:040180002c0200004d
:020000040000fa
:040184002c02000049
:020000040000fa
:040188002c02000045
:020000040000fa
:04018c002c02000041
:020000040000fa
:040190002c0200003d
:020000040000fa
:040194002c02000039
:020000040000fa
:040198002c02000035
:020000040000fa
:04019c002c02000031
:020000040000fa
:0401a0002c0200002d
:020000040000fa
:0401a4002c02000029
:020000040000fa
:0401a8002c02000025
:020000040000fa
:0401ac002c02000021
:020000040000fa
:0401b0002c0200001d
:020000040000fa
:0401b4002c02000019
:020000040000fa
:0401b8002c02000015
:020000040000fa
:0401bc002c02000011
:020000040000fa
:0401c0002c0200000d
:020000040000fa
:0401c4002c02000009
:020000040000fa
:0401c8002c02000005
:020000040000fa
:0401cc002c02000001
:020000040000fa
:0401d0002c020000fd
:020000040000fa
:0401d4002c020000f9
:020000040000fa
:0401d8002c020000f5
:020000040000fa
:0401dc002c020000f1
:020000040000fa
:0401e0002c020000ed
:020000040000fa
:0401e4002c020000e9
:020000040000fa
:0401e8002c020000e5
:020000040000fa
:0401ec002c020000e1
:020000040000fa
:0401f0002c020000dd
:020000040000fa
:0401f4002c020000d9
:020000040000fa
:0401f8002c020000d5
:020000040000fa
:0401fc002c020000d1
:020000040000fa
:100200002f8020000eff27000e0188000000000054
:10021000000020000000e000020032000001200089
:1002200020028800140007008d0007000000e00095
:1002300003003a00a02d200001002000020037003a
:100240000000200001002000810f7000010032003a
:1002500014000700000020000000e000020032004f
:100260000000020000000000320202000000000056
:100270000040da000000fe004440a90020002000f9
:100280000000e00003003200100020009001880010
:100290004440a800000006008a1f78008b1f7800e9
:1002a00000000600a1028800800478000000eb0036
:1002b0001f003700e284440054a0b4009905ba003e
:1002c000e284440054a0b4009906ba00e2844400d9
:1002d00054a0b4000006eb00476fde00fd07b2003b
:1002e000ae018800636ce10003003a00eaff0700fa
:1002f0000000eb000e003700606ce10008003a00df
:10030000004deb000a05e800020039003420ec0043
:100310000af0a0008b05e900f9ff3e000400370059
:100320006168e100010032000086eb000b0007006d
:1003300019c7ba001905ba000e04e00003003a001c
:100340000a00e000dbff3a0000000600fe07b200f2
:10035000ae0288008a047800f5ff37000cd0a300b5
:10036000e20f4d001c00390089027800354dba00bb
:100370000a05e800020039003420ec000af0a00071
:100380008b05e9000f003200254dba000a05e80090
:10039000020039003420ec000af0a0008b05e900cf
:1003a000080032000c00e0000600320015cdba0053
:1003b0000a05e800020039003420ec000af0a00031
:1003c0008b05e9008984e80054a0b4000b00e0002c
:1003d000e2ff3a00000006009902ba00055d7800cd
:1003e0008b05e900f7ff3200c82ade00055d7800c2
:1003f0008b05e900f3ff32000c00e000f1ff320052
:1004000019ddba00eeff3700809fbe000000fa0041
:10041000f03680004e00de00614060000004a20063
:10042000614060000080fb00610060004e00dd0064
:10043000f136800001e0a10001007000f036880074
:10044000a3e1a9009900a9008900a9000080fa0091
:100450004f00be00004006000040da000000fe0031
:040460000000050093
:020000040000fa
:100464000000fa00dbc6a900db86a800a3e1a9000e
:10047400110d8000f0cf2f0000806000100d880067
:10048400110d80000003200001007000100d880091
:10049400a221a90090d02300f00c880061058000ff
:1004a40080ff2f00008060000010a000600588001d
:1004b4008900a9009900a800a3e1a800dfc6a8004c
:1004c40000902000d10320002b000700dfc6a90004
:1004d40083e0a8000100370000000000e13680003e
:1004e40000002100008060000000e000faff3200fc
:1004f400110d800000002800008060000000e00072
:1005040006003200a3e1a9009a21ef0090d0230055
:10051400f00c8800a3e1a80011003700f036800039
:100524004e00de00614060000004a20061406000f3
:100534000080fb00610060004e00dd00f1368000a9
:1005440001e0a10001007000f0368800a3e1a800da
:10055400000000008900a9009900a8000000000024
:10056400e136800000002100008060000000e0000f
:08057400fbff3a00d9ff37003c
:020000040000fa
:10057c00f03fb1000180b10006003500ee03090028
:10058c0000000000403fb1000180b100fbff3d00c6
:10059c001000b000203fb0000200350000800900c0
:0805ac00000000000000060041
:020000040000fa
:1005b40000080000020000008000000000000000ad
:020000040000fa
:020000040002f8
:04be0000ffffff0041
:020000040000fa
:020000040002f8
:04be2000ff1f000000
:020000040000fa
:020000040002f8
:04be300062ffff00ae
:020000040000fa
:020000040002f8
:04be38009affff006e
:020000040000fa
:020000040002f8
:04be40009fffff0061
:020000040000fa
:020000040002f8
:04be4800f4ffff0004
:020000040000fa
:020000040002f8
:04be5000deffff0012
:020000040000fa
:020000040002f8
:04be5800f7ffff00f1
:00000001FF
