:020000040000fa
:080000000001040000000000f3
:020000040000fa
:0400080024020000ce
:020000040000fa
:04000c0024020000ca
:020000040000fa
:0400100024020000c6
:020000040000fa
:0400140024020000c2
:020000040000fa
:0400180024020000be
:020000040000fa
:04001c0024020000ba
:020000040000fa
:0400200024020000b6
:020000040000fa
:0400240024020000b2
:020000040000fa
:0400280024020000ae
:020000040000fa
:04002c0024020000aa
:020000040000fa
:0400300024020000a6
:020000040000fa
:0400340024020000a2
:020000040000fa
:04003800240200009e
:020000040000fa
:04003c00240200009a
:020000040000fa
:040040002402000096
:020000040000fa
:040044002402000092
:020000040000fa
:04004800240200008e
:020000040000fa
:04004c00240200008a
:020000040000fa
:040050002402000086
:020000040000fa
:040054002402000082
:020000040000fa
:04005800240200007e
:020000040000fa
:04005c00040200009a
:020000040000fa
:040060002402000076
:020000040000fa
:040064002402000072
:020000040000fa
:04006800240200006e
:020000040000fa
:04006c00240200006a
:020000040000fa
:040070002402000066
:020000040000fa
:040074002402000062
:020000040000fa
:04007800240200005e
:020000040000fa
:04007c00240200005a
:020000040000fa
:040080002402000056
:020000040000fa
:040084002402000052
:020000040000fa
:04008800240200004e
:020000040000fa
:04008c00240200004a
:020000040000fa
:040090002402000046
:020000040000fa
:040094002402000042
:020000040000fa
:04009800240200003e
:020000040000fa
:04009c00240200003a
:020000040000fa
:0400a0002402000036
:020000040000fa
:0400a4002402000032
:020000040000fa
:0400a800240200002e
:020000040000fa
:0400ac00240200002a
:020000040000fa
:0400b0002402000026
:020000040000fa
:0400b4002402000022
:020000040000fa
:0400b800240200001e
:020000040000fa
:0400bc00240200001a
:020000040000fa
:0400c0002402000016
:020000040000fa
:0400c4002402000012
:020000040000fa
:0400c800240200000e
:020000040000fa
:0400cc00240200000a
:020000040000fa
:0400d0002402000006
:020000040000fa
:0400d4002402000002
:020000040000fa
:0400d80024020000fe
:020000040000fa
:0400dc0024020000fa
:020000040000fa
:0400e00024020000f6
:020000040000fa
:0400e40024020000f2
:020000040000fa
:0400e80024020000ee
:020000040000fa
:0400ec0024020000ea
:020000040000fa
:0400f00024020000e6
:020000040000fa
:0400f40024020000e2
:020000040000fa
:0400f80024020000de
:020000040000fa
:0400fc0024020000da
:020000040000fa
:0401000024020000d5
:020000040000fa
:0401040024020000d1
:020000040000fa
:0401080024020000cd
:020000040000fa
:04010c0024020000c9
:020000040000fa
:0401100024020000c5
:020000040000fa
:0401140024020000c1
:020000040000fa
:0401180024020000bd
:020000040000fa
:04011c0024020000b9
:020000040000fa
:0401200024020000b5
:020000040000fa
:0401240024020000b1
:020000040000fa
:0401280024020000ad
:020000040000fa
:04012c0024020000a9
:020000040000fa
:0401300024020000a5
:020000040000fa
:0401340024020000a1
:020000040000fa
:04013800240200009d
:020000040000fa
:04013c002402000099
:020000040000fa
:040140002402000095
:020000040000fa
:040144002402000091
:020000040000fa
:04014800240200008d
:020000040000fa
:04014c002402000089
:020000040000fa
:040150002402000085
:020000040000fa
:040154002402000081
:020000040000fa
:04015800240200007d
:020000040000fa
:04015c002402000079
:020000040000fa
:040160002402000075
:020000040000fa
:040164002402000071
:020000040000fa
:04016800240200006d
:020000040000fa
:04016c002402000069
:020000040000fa
:040170002402000065
:020000040000fa
:040174002402000061
:020000040000fa
:04017800240200005d
:020000040000fa
:04017c002402000059
:020000040000fa
:040180002402000055
:020000040000fa
:040184002402000051
:020000040000fa
:04018800240200004d
:020000040000fa
:04018c002402000049
:020000040000fa
:040190002402000045
:020000040000fa
:040194002402000041
:020000040000fa
:04019800240200003d
:020000040000fa
:04019c002402000039
:020000040000fa
:0401a0002402000035
:020000040000fa
:0401a4002402000031
:020000040000fa
:0401a800240200002d
:020000040000fa
:0401ac002402000029
:020000040000fa
:0401b0002402000025
:020000040000fa
:0401b4002402000021
:020000040000fa
:0401b800240200001d
:020000040000fa
:0401bc002402000019
:020000040000fa
:0401c0002402000015
:020000040000fa
:0401c4002402000011
:020000040000fa
:0401c800240200000d
:020000040000fa
:0401cc002402000009
:020000040000fa
:0401d0002402000005
:020000040000fa
:0401d4002402000001
:020000040000fa
:0401d80024020000fd
:020000040000fa
:0401dc0024020000f9
:020000040000fa
:0401e00024020000f5
:020000040000fa
:0401e40024020000f1
:020000040000fa
:0401e80024020000ed
:020000040000fa
:0401ec0024020000e9
:020000040000fa
:0401f00024020000e5
:020000040000fa
:0401f40024020000e1
:020000040000fa
:0401f80024020000dd
:020000040000fa
:0401fc0024020000d9
:020000040000fa
:100200002f8020000eff27000e0188000000000054
:10021000000020000000e000020032000001200089
:100220002002880014000700890007000000e00099
:1002300003003a0080312000010020000200370056
:100240000000200001002000810f7000010032003a
:1002500014000700000020000000e000020032004f
:100260000000020000000000c802020000000000c0
:100270000040da000000fe004440a90020002000f9
:100280000000e00003003200100020009001880010
:100290004440a800000006008a1f78008b1f7800e9
:1002a00000000600a1028800800478000000eb0036
:1002b0001f003700e284440054a0b4009905ba003e
:1002c000e284440054a0b4009906ba00e2844400d9
:1002d00054a0b4000006eb00476fde00fd07b2003b
:1002e000ae018800636ce10003003a00eaff0700fa
:1002f0000000eb000e003700606ce10008003a00df
:10030000004deb000a05e800020039003420ec0043
:100310000af0a0008b05e900f9ff3e000400370059
:100320006168e100010032000086eb000b0007006d
:1003300019c7ba001905ba000e04e00003003a001c
:100340000a00e000dbff3a0000000600fe07b200f2
:10035000ae0288008a047800f5ff37000cd0a300b5
:10036000e20f4d001c00390089027800354dba00bb
:100370000a05e800020039003420ec000af0a00071
:100380008b05e9000f003200254dba000a05e80090
:10039000020039003420ec000af0a0008b05e900cf
:1003a000080032000c00e0000600320015cdba0053
:1003b0000a05e800020039003420ec000af0a00031
:1003c0008b05e9008984e80054a0b4000b00e0002c
:1003d000e2ff3a00000006009902ba00055d7800cd
:1003e0008b05e900f7ff3200c82ade00055d7800c2
:1003f0008b05e900f3ff32000c00e000f1ff320052
:1004000019ddba00eeff3700801f78003200f800d7
:100410003400f80010002000a00188001000200027
:10042000900188000000fa009038800000408800a9
:1004300089a0a9000080fa003400f9003200f90018
:100440004f007800004006000040da000000fe0087
:0404500000000500a3
:020000040000fa
:100454000000fa00413a8000f0ff230000806000b1
:10046400403a880049a7a900f0c3b3004ae7b7009f
:10047400313a8000f0f02f0000806000303a8800ac
:10048400313a8000f0cf2f0000806000303a8800bd
:10049400413a800030f82f0000806000403a880024
:1004a4004747a8004be7a90071058000f0f82f002a
:1004b400008060000060a0007005880089a0a90089
:1004c40099a0a8000080fa00000006000000fa00cd
:1004d40047e7a8000080fa00000006000200fa00c6
:1004e400004f78001e80fb00603a88000080fa000c
:1004f400000006000200fa004627a8000040eb00b6
:10050400004f780002003700000000001e4fe80092
:1005140030c6b3009e40780080cf5000faff34000c
:100524004627a9008040eb000e00e800014878004f
:1005340006003700000000000e00e80010407800bc
:100544008040e8000e00e800014878000e00e80052
:100554009040780030c6b30080cf5000f5ff3400df
:100564000080fa00000006000000fa00000000000d
:10057400303a8000610060000000e000fcff3200bf
:10058400903880000080fa00000006000200fa00a3
:100594007f86a800dbc6a9007786a80083e0a800b0
:1005a400dfc6a800aaff0700c0c0b300cbff070046
:1005b400c6ff0700cfff07000000eb00000f780024
:1005c4000400370000192000010020000900070082
:1005d4001e0fe800004080009e007800808f5000cd
:1005e400f8ff3900c3ff0700dfff07000040880061
:0405f400f1ff3700dc
:020000040000fa
:1005f800f03fb1000180b10006003500ee030900ac
:1006080000000000403fb1000180b100fbff3d0049
:100618001000b000203fb000020035000080090043
:080628000000000000000600c4
:020000040000fa
:10063000000800000200000082000000e803000043
:0406400000000000b6
:020000040000fa
:020000040002f8
:04be0000ffffff0041
:020000040000fa
:020000040002f8
:04be2000ff1f000000
:020000040000fa
:020000040002f8
:04be300062ffff00ae
:020000040000fa
:020000040002f8
:04be38009affff006e
:020000040000fa
:020000040002f8
:04be40009fffff0061
:020000040000fa
:020000040002f8
:04be4800f4ffff0004
:020000040000fa
:020000040002f8
:04be5000deffff0012
:020000040000fa
:020000040002f8
:04be5800f7ffff00f1
:00000001FF
